{
  "contractName": "Apply",
  "abi": [
    {
      "inputs": [
        {
          "name": "_token",
          "type": "address"
        }
      ],
      "payable": false,
      "stateMutability": "nonpayable",
      "type": "constructor"
    },
    {
      "constant": false,
      "inputs": [
        {
          "name": "addr",
          "type": "address"
        },
        {
          "name": "finger",
          "type": "string"
        }
      ],
      "name": "apply",
      "outputs": [
        {
          "name": "",
          "type": "bool"
        }
      ],
      "payable": false,
      "stateMutability": "nonpayable",
      "type": "function"
    },
    {
      "constant": false,
      "inputs": [
        {
          "name": "addr",
          "type": "address"
        },
        {
          "name": "finger",
          "type": "string"
        }
      ],
      "name": "sign",
      "outputs": [
        {
          "name": "",
          "type": "bool"
        }
      ],
      "payable": false,
      "stateMutability": "nonpayable",
      "type": "function"
    },
    {
      "constant": true,
      "inputs": [],
      "name": "getApplicants",
      "outputs": [
        {
          "name": "",
          "type": "address[]"
        }
      ],
      "payable": false,
      "stateMutability": "view",
      "type": "function"
    },
    {
      "constant": true,
      "inputs": [],
      "name": "getSigned",
      "outputs": [
        {
          "name": "",
          "type": "address[]"
        }
      ],
      "payable": false,
      "stateMutability": "view",
      "type": "function"
    },
    {
      "constant": true,
      "inputs": [],
      "name": "getUnSigned",
      "outputs": [
        {
          "name": "",
          "type": "address[]"
        }
      ],
      "payable": false,
      "stateMutability": "view",
      "type": "function"
    }
  ],
  "bytecode": "0x608060405260426002556000600360006101000a81548173ffffffffffffffffffffffffffffffffffffffff021916908373ffffffffffffffffffffffffffffffffffffffff16021790555034801561005757600080fd5b50604051602080610e3a8339810180604052810190808051906020019092919050505060008173ffffffffffffffffffffffffffffffffffffffff16141515156100a057600080fd5b33600360006101000a81548173ffffffffffffffffffffffffffffffffffffffff021916908373ffffffffffffffffffffffffffffffffffffffff16021790555080600460006101000a81548173ffffffffffffffffffffffffffffffffffffffff021916908373ffffffffffffffffffffffffffffffffffffffff16021790555050610d08806101326000396000f30060806040526004361061006d576000357c0100000000000000000000000000000000000000000000000000000000900463ffffffff168063455772d21461007257806356be3570146100de57806379106e581461014a578063897a142a146101b6578063ad2a9fcf14610229575b600080fd5b34801561007e57600080fd5b5061008761029c565b6040518080602001828103825283818151815260200191508051906020019060200280838360005b838110156100ca5780820151818401526020810190506100af565b505050509050019250505060405180910390f35b3480156100ea57600080fd5b506100f361032a565b6040518080602001828103825283818151815260200191508051906020019060200280838360005b8381101561013657808201518184015260208101905061011b565b505050509050019250505060405180910390f35b34801561015657600080fd5b5061015f610528565b6040518080602001828103825283818151815260200191508051906020019060200280838360005b838110156101a2578082015181840152602081019050610187565b505050509050019250505060405180910390f35b3480156101c257600080fd5b5061020f600480360381019080803573ffffffffffffffffffffffffffffffffffffffff16906020019092919080359060200190820180359060200191909192939192939050505061077e565b604051808215151515815260200191505060405180910390f35b34801561023557600080fd5b50610282600480360381019080803573ffffffffffffffffffffffffffffffffffffffff1690602001909291908035906020019082018035906020019190919293919293905050506108e3565b604051808215151515815260200191505060405180910390f35b6060600180548060200260200160405190810160405280929190818152602001828054801561032057602002820191906000526020600020905b8160009054906101000a900473ffffffffffffffffffffffffffffffffffffffff1673ffffffffffffffffffffffffffffffffffffffff16815260200190600101908083116102d6575b5050505050905090565b60606000606060008060606001805490506040519080825280602002602001820160405280156103695781602001602082028038833980820191505090505b509350600092505b60018054905083101561046f5760018381548110151561038d57fe5b9060005260206000200160009054906101000a900473ffffffffffffffffffffffffffffffffffffffff1691506000808373ffffffffffffffffffffffffffffffffffffffff1673ffffffffffffffffffffffffffffffffffffffff16815260200190815260200160002060010160009054906101000a900460ff16156104625781848681518110151561041d57fe5b9060200190602002019073ffffffffffffffffffffffffffffffffffffffff16908173ffffffffffffffffffffffffffffffffffffffff168152505084806001019550505b8280600101935050610371565b8460405190808252806020026020018201604052801561049e5781602001602082028038833980820191505090505b509050600092505b8483101561051d5783838151811015156104bc57fe5b9060200190602002015181848151811015156104d457fe5b9060200190602002019073ffffffffffffffffffffffffffffffffffffffff16908173ffffffffffffffffffffffffffffffffffffffff168152505082806001019350506104a6565b809550505050505090565b60606000606060008060606001805490506040519080825280602002602001820160405280156105675781602001602082028038833980820191505090505b509350600092505b6001805490508310156106c55760018381548110151561058b57fe5b9060005260206000200160009054906101000a900473ffffffffffffffffffffffffffffffffffffffff1691506000808373ffffffffffffffffffffffffffffffffffffffff1673ffffffffffffffffffffffffffffffffffffffff16815260200190815260200160002060010160019054906101000a900460ff16801561065f57506000808373ffffffffffffffffffffffffffffffffffffffff1673ffffffffffffffffffffffffffffffffffffffff16815260200190815260200160002060010160009054906101000a900460ff16155b156106b85781848681518110151561067357fe5b9060200190602002019073ffffffffffffffffffffffffffffffffffffffff16908173ffffffffffffffffffffffffffffffffffffffff168152505084806001019550505b828060010193505061056f565b846040519080825280602002602001820160405280156106f45781602001602082028038833980820191505090505b509050600092505b8483101561077357838381518110151561071257fe5b90602001906020020151818481518110151561072a57fe5b9060200190602002019073ffffffffffffffffffffffffffffffffffffffff16908173ffffffffffffffffffffffffffffffffffffffff168152505082806001019350506106fc565b809550505050505090565b600060018490806001815401808255809150509060018203906000526020600020016000909192909190916101000a81548173ffffffffffffffffffffffffffffffffffffffff021916908373ffffffffffffffffffffffffffffffffffffffff1602179055505060606040519081016040528084848080601f0160208091040260200160405190810160405280939291908181526020018383808284378201915050505050508152602001600015158152602001600115158152506000808673ffffffffffffffffffffffffffffffffffffffff1673ffffffffffffffffffffffffffffffffffffffff1681526020019081526020016000206000820151816000019080519060200190610894929190610bb7565b5060208201518160010160006101000a81548160ff02191690831515021790555060408201518160010160016101000a81548160ff021916908315150217905550905050600190509392505050565b60008060008573ffffffffffffffffffffffffffffffffffffffff1673ffffffffffffffffffffffffffffffffffffffff16815260200190815260200160002060010160019054906101000a900460ff1615156109a8576040517f08c379a00000000000000000000000000000000000000000000000000000000081526004018080602001828103825260118152602001807f41646472657373206e6f74206170706c7900000000000000000000000000000081525060200191505060405180910390fd5b82826000808773ffffffffffffffffffffffffffffffffffffffff1673ffffffffffffffffffffffffffffffffffffffff16815260200190815260200160002060000191906109f8929190610c37565b506000808573ffffffffffffffffffffffffffffffffffffffff1673ffffffffffffffffffffffffffffffffffffffff16815260200190815260200160002060010160009054906101000a900460ff161515610b5257600460009054906101000a900473ffffffffffffffffffffffffffffffffffffffff1673ffffffffffffffffffffffffffffffffffffffff1663a9059cbb856002546040518363ffffffff167c0100000000000000000000000000000000000000000000000000000000028152600401808373ffffffffffffffffffffffffffffffffffffffff1673ffffffffffffffffffffffffffffffffffffffff16815260200182815260200192505050602060405180830381600087803b158015610b1557600080fd5b505af1158015610b29573d6000803e3d6000fd5b505050506040513d6020811015610b3f57600080fd5b8101908080519060200190929190505050505b60016000808673ffffffffffffffffffffffffffffffffffffffff1673ffffffffffffffffffffffffffffffffffffffff16815260200190815260200160002060010160006101000a81548160ff021916908315150217905550600190509392505050565b828054600181600116156101000203166002900490600052602060002090601f016020900481019282601f10610bf857805160ff1916838001178555610c26565b82800160010185558215610c26579182015b82811115610c25578251825591602001919060010190610c0a565b5b509050610c339190610cb7565b5090565b828054600181600116156101000203166002900490600052602060002090601f016020900481019282601f10610c7857803560ff1916838001178555610ca6565b82800160010185558215610ca6579182015b82811115610ca5578235825591602001919060010190610c8a565b5b509050610cb39190610cb7565b5090565b610cd991905b80821115610cd5576000816000905550600101610cbd565b5090565b905600a165627a7a723058203521d160e32a4c1a102a430f3183ff3ac95ebb4b7d3d90cd72f8f16df0216d2b0029",
  "source": "pragma solidity 0.4.24;\n\nimport \"./Token.sol\";\n\ncontract Apply {\n    struct addrInfo {\n        string finger;\n        bool signed;\n        bool used;\n    }\n\n    mapping (address => addrInfo) addrMap;\n    address[] applicants;\n\n    uint256 amount = 66;\n\n    address owner         = 0x0;\n    ERC20   token;\n\n    constructor (address _token) public {\n        require(_token != 0x0);\n\n        owner = msg.sender;\n        token = ERC20(_token);\n    }\n\n    function apply(address addr, string finger) external returns(bool) {\n        applicants.push(addr);\n        addrMap[addr] = addrInfo(finger, false, true);\n\n        return true;\n    }\n\n    function sign(address addr, string finger) external returns(bool)  {\n        require(addrMap[addr].used, \"Address not apply\");\n        addrMap[addr].finger = finger;\n\n        if (!addrMap[addr].signed) {\n            token.transfer(addr, amount);\n        }\n        addrMap[addr].signed = true;\n\n        return true;\n    }\n\n    function getApplicants() external view returns(address[]) {\n        return applicants;\n    }\n\n    function getSigned() external view returns(address[]) {\n        uint256 count;\n        address[] memory temp = new address[](applicants.length);\n        for (uint256 i = 0; i < applicants.length; i++) {\n            address addr = applicants[i];\n            if (addrMap[addr].signed) {\n                temp[count] = addr;\n                count++;\n            }\n        }\n\n        address[] memory result = new address[](count);\n        for (i = 0; i < count; i++) {\n            result[i] = temp[i];\n        }\n\n        return result;\n    }\n\n    function getUnSigned() external view returns(address[]) {\n        uint256 count;\n        address[] memory temp = new address[](applicants.length);\n        for (uint256 i = 0; i < applicants.length; i++) {\n            address addr = applicants[i];\n            if (addrMap[addr].used && !addrMap[addr].signed) {\n                temp[count] = addr;\n                count++;\n            }\n        }\n\n        address[] memory result = new address[](count);\n        for (i = 0; i < count; i++) {\n            result[i] = temp[i];\n        }\n\n        return result;\n    }\n}\n",
  "sourcePath": "/home/mario190624/apply/contract/contracts/Apply.sol",
  "compiler": {
    "name": "solc",
    "version": "0.4.24+commit.e67f0147.Emscripten.clang"
  },
  "schemaVersion": "2.0.1",
  "updatedAt": "2019-06-26T10:49:30.791Z"
}